:100000000A128A112D2AFF1B0D2883137F188317CC
:100010000008840A0319FF0A080000308A00040857
:10002000840A820700345234653463346534693499
:1000300076346534203400345434723461346E3490
:1000400073346D346934743400344D346F34643433
:0400500065340034DF
:10045A0083010A128A11362EF40074080A128A11CC
:10046A0044220A128A110800F300831203130611A8
:10047A0073080A128A1192250A128A110800F300D7
:10048A0083120313061573080A128A1192250A1297
:10049A008A11080083160313941314178312031383
:1004AA00141294111411941414109413941608002D
:1004BA00831203138710FF300A128A1183220A1249
:1004CA008A11F3007308F400831203138714740863
:1004DA006E2A08001730F8007808F3007A30F9001D
:1004EA007908F400F5010314F50D00300A128A1197
:1004FA0064230A128A117A08822A0800F2008312F7
:10050A0003131308F0007008F1008C1172089300AD
:10051A008E2A83160313141C932A942A8E2A952A48
:10052A00831203131308992A0800F500F508031D1E
:10053A009F2AA02AA82A740880380A128A11392206
:10054A000A128A11B02A7408C0380A128A1139228A
:10055A000A128A11B02A0800F500C42A7508840014
:10056A000A128A110D200A128A110A128A114422C9
:10057A000A128A110130F4007408F507C42A7508B2
:10058A0084000A128A110D200A128A110038031DEA
:10059A00CF2AD02AB32AD12A0800831203130710BC
:1005AA00F3017A30F9007908F400F5010314F50D26
:1005BA0000300A128A1164230A128A117A14F3018A
:1005CA007A30F4000030F500F6010314F60D2030FD
:1005DA000A128A1191230A128A1183120313071429
:1005EA000800831203130710F3017A30F90079081F
:1005FA00F400F5010314F50D00300A128A11642380
:10060A000A128A11FE30F9007908FA05F3017A30E4
:10061A00F4000030F500F6010314F60D20300A123A
:10062A008A1191230A128A110800FF30F100710819
:10063A00F2001F2B0A128A11F1240A128A11F10000
:10064A007108F2007208FF3A03192C2B2D2B1F2B6D
:10065A00302B302B302B0A128A11F1240A128A11FC
:10066A00FF3A031D392B3A2B302B3B2B72083D2BBB
:10067A0008000630831603139F0005108510051124
:10068A0085110516851601308600D430870083123D
:10069A0003138501860187018610071087140A1241
:1006AA008A114F220A128A110A128A11FA260A128A
:1006BA008A110A128A115D240A128A110800F700A7
:1006CA0073081F39F6007608F70783120313871099
:1006DA0077080A128A1183220A128A11852BFF309F
:1006EA000A128A1183220A128A11F60074088400F7
:1006FA007608831380000130F6007608F407852B0C
:10070A000130F5027508FF3A031D8C2B8D2B742BD3
:10071A008312031387140800F80073081F39F700BF
:10072A007708F80783120313871078080A128A11C8
:10073A0083220A128A11B82B750883120313FF0049
:10074A00740884000A128A1103200A128A110A12F2
:10075A008A1183220A128A110130F4070318F50A52
:10076A000030F507B82B0130F6027608FF3A031D70
:10077A00BF2BC02BA12B83120313871408008312EB
:10078A000313A0000A128A116F220A128A11FC00AE
:10079A007C0883120313A1002118D42BD52BEA2B32
:1007AA00F3012008FC007C08F4007B08FD007D08AA
:1007BA00F50061300A128A1164230A128A1183121F
:1007CA000313A3010314A30DEC2BA301EC2B0A12B0
:1007DA008A115D220A128A11FC007C088312031313
:1007EA00A2000730FC007C08F3002230F40000303D
:1007FA00F500F6010314F60D20300A128A1191232E
:10080A000A128A118312031323080B2C0800FB0017
:10081A00831203130714F3017B08F4000030F50078
:10082A007908FA007A08F600A0300A128A11912390
:10083A000A128A11831203130710232C0719262C74
:10084A00272C232C282C0A128A115D220A128A11BB
:10085A00FA007A08FC000730FA007A08F3007C30C4
:10086A00F4000030F500F6010314F60D20300A12E8
:10087A008A1191230A128A11F3010030F4008030A0
:10088A00F500F601E1300A128A1191230A128A113F
:10089A00FC1E502C512C592C7C1A542C552C592C9A
:1008AA0001305C2C5C2C5C2C00305C2C5C2C08002D
:1008BA00C330F500CD30F400F40B612CF50B612C3C
:1008CA008312031386158230F500DD30F400F40B31
:1008DA006C2CF50B6C2C712C8312031386110611E8
:1008EA00861306138616061686150D30F500FB309C
:1008FA00F400F40B7E2CF50B7E2C832C831203134D
:10090A008611861306138616061686150D30F5000F
:10091A00FB30F400F40B8F2CF50B8F2C942C8312E4
:10092A00031386110D30F500FB30F400F40B9B2CF9
:10093A00F50B9B2CA02C8312031386130613861621
:10094A00061686150D30F500FB30F400F40BAB2CBF
:10095A00F50BAB2CB02C8312031386110D30F50066
:10096A00FB30F400F40BB72CF50BB72CBC2C83121C
:10097A000313861306138616061286150D30F50024
:10098A00FB30F400F40BC72CF50BC72CCC2C8312CC
:10099A00031386110D30F500FB30F400F40BD32C51
:1009AA00F50BD32CD82C28300A128A1139220A12B4
:1009BA008A110C300A128A1139220A128A1101305C
:1009CA000A128A1139220A128A1106300A128A1167
:1009DA0039220A128A110800831203138511051598
:1009EA00851405143130F000F00BF92CFC2C83121D
:1009FA000313071B012D022D052D3130912D912D49
:100A0A00871B082D092D0C2D3230912D912D851A19
:100A1A000F2D102D132D3330912D912D051A162DD2
:100A2A00172D1A2D4130912D912D851505118514FB
:100A3A0005143130F000F00B202D232D83120313FF
:100A4A00071B282D292D2C2D3430912D912D871BF4
:100A5A002F2D302D332D3530912D912D851A362D90
:100A6A00372D3A2D3630912D912D051A3D2D3E2DDB
:100A7A00412D4230912D912D8515051585100514AE
:100A8A003130F000F00B472D4A2D83120313071B58
:100A9A004F2D502D532D3730912D912D871B562DCB
:100AAA00572D5A2D3830912D912D851A5D2D5E2D99
:100ABA00612D3930912D912D051A642D652D682DE2
:100ACA004330912D912D851505158514051031306A
:100ADA00F000F00B6E2D712D83120313071B762D78
:100AEA00772D7A2D2A30912D912D871B7D2D7E2DE4
:100AFA00812D3030912D912D851A842D852D882DAB
:100B0A002330912D912D051A8B2D8C2D8F2D44304C
:100B1A00912D912DFF30912D0800F2007208F000FE
:100B2A0007300310F00CFF3E031D962D70189E2D02
:100B3A00A22D831203138617A52D8312031386137E
:100B4A007208F00006300310F00CFF3E031DA82DBA
:100B5A007018B02DB42D831203130617B72D831204
:100B6A00031306137208F00005300310F00CFF3E61
:100B7A00031DBA2D7018C22DC62D831203138616B3
:100B8A00C92D8312031386127208F0000430031071
:100B9A00F00CFF3E031DCC2D7018D42DD82D8312D6
:100BAA0003130616DB2D83120313061286150D3066
:100BBA00F100FB30F000F00BE02DF10BE02DE52DFC
:100BCA008312031386117208F00003300310F00C2D
:100BDA00FF3E031DEB2D7018F32DF72D831203131F
:100BEA008617FA2D8312031386137208F000023057
:100BFA000310F00CFF3E031DFD2D7018052E092E63
:100C0A008312031306170C2E83120313061372089A
:100C1A00F00001300310F00CFF3E031D0F2E701878
:100C2A00172E1B2E8312031386161E2E83120313EE
:100C3A0086127218212E252E831203130616282EC9
:100C4A0083120313061286150D30F100FB30F000F3
:100C5A00F00B2D2EF10B2D2E322E8312031386113B
:100C6A0008000A128A113E230A128A113C2E8312A4
:100C7A0003130719412E422EE72EFB010314FB0D25
:100C8A002B300A128A11C4230A128A1183120313FF
:100C9A00A5002508A9002908031D542EE72EF401F2
:100CAA0000300A128A119A220A128A1101300A1293
:100CBA008A11B1220A128A11F40101300A128A1128
:100CCA009A220A128A11831203132B080A128A1112
:100CDA0031220A128A11831203132B08313A031D97
:100CEA00772E782E7A2E8614E72E2B08323A031D99
:100CFA007F2E802EE72E8610E72EE72EE72EE72E90
:100D0A00E72E0A128A111A230A128A11831203136E
:100D1A00A5002508AA000310861C03140318962EA2
:100D2A009A2E8312031386149D2E831203138610A0
:100D3A00C330A600CD30A500A50BA12EA60BA12E6F
:100D4A00F40100300A128A119A220A128A110A3010
:100D5A000A128A11B1220A128A11F40101300A1206
:100D6A008A119A220A128A1113300A128A11B1229E
:100D7A000A128A11023083120313A7000430A60054
:100D8A00BA30A500A50BC72EA60BC72EA70BC72ED8
:100D9A0000000A128A11F6220A128A11F9010314B2
:100DAA00F90D2A300A128A110C240A128A118312A6
:100DBA000313A5002508A9000A128A11D2220A12D1
:100DCA008A11E72E0A128A11F1240A128A11831251
:100DDA000313A800FF3A031DF32EF42E862E3C2E91
:100DEA003C2E3C2E0A128A1100280330FB008A305E
:100DFA00FA005630F900F90B002FFA0B002FFB0B03
:100E0A00002F072FF3010030F4008030F500F601BF
:100E1A00E1300A128A1191230A128A11F301003071
:100E2A00F4008030F500F601E2300A128A119123AB
:100E3A000A128A11AA30F900790883120313A00052
:100E4A00BB30F9007908A100CC30F9007908A2007A
:100E5A00DD30F9007908A300EE30F9007908A40022
:100E6A001030F9007908F3002030F4000030F50062
:100E7A000530FA007A08F60020300A128A11912306
:100E8A000A128A110A30F9007908F3002030F400B6
:100E9A000030F5000530FA007A08F60020300A1210
:100EAA008A1191230A128A1183120313A0010314CF
:100EBA00A00DF3010314F30D2030F4000030F50007
:100ECA00F6010314F60D20300A128A1191230A1230
:100EDA008A1183120313A0010314A00D0230F90032
:100EEA007908F3002030F4000030F500F60103140D
:100EFA00F60D20300A128A1191230A128A118312DE
:100F0A000313A0010314A00D1130F9007908F300AE
:100F1A002030F4000030F500F6010314F60D2030FD
:100F2A000A128A1191230A128A111F30F9007908CC
:100F3A0083120313A0000430F9007908F30020306B
:100F4A00F4000030F500F6010314F60D20300A1201
:100F5A008A1191230A128A113230F9007908831210
:100F6A000313A0000530F9007908F3002030F400DB
:100F7A000030F500F6010314F60D20300A128A112A
:100F8A0091230A128A110630F90079088312031391
:100F9A00A0000630F9007908F3002030F400003090
:100FAA00F500F6010314F60D20300A128A11912376
:100FBA000A128A110F30F900790883120313A0006C
:100FCA00F3012030F4000030F500F6010314F60DA9
:100FDA0020300A128A1191230A128A1183120313EA
:100FEA0007140D30FA00FB30F900F90BFA2FFA0B4F
:060FFA00FA2FFF2F080092
:02400E0032FF7F
:00000001FF
